{
  "contractName": "StudyCoin",
  "abi": [
    {
      "inputs": [],
      "stateMutability": "nonpayable",
      "type": "constructor"
    },
    {
      "anonymous": false,
      "inputs": [
        {
          "indexed": true,
          "internalType": "address",
          "name": "owner",
          "type": "address"
        },
        {
          "indexed": true,
          "internalType": "address",
          "name": "spender",
          "type": "address"
        },
        {
          "indexed": false,
          "internalType": "uint256",
          "name": "value",
          "type": "uint256"
        }
      ],
      "name": "Approval",
      "type": "event"
    },
    {
      "anonymous": false,
      "inputs": [
        {
          "indexed": false,
          "internalType": "address",
          "name": "newOwner",
          "type": "address"
        }
      ],
      "name": "OwnershipTransferred",
      "type": "event"
    },
    {
      "anonymous": false,
      "inputs": [
        {
          "indexed": false,
          "internalType": "address",
          "name": "seller",
          "type": "address"
        },
        {
          "indexed": false,
          "internalType": "uint256",
          "name": "tokens",
          "type": "uint256"
        },
        {
          "indexed": false,
          "internalType": "uint256",
          "name": "inWei",
          "type": "uint256"
        }
      ],
      "name": "TokenSold",
      "type": "event"
    },
    {
      "anonymous": false,
      "inputs": [
        {
          "indexed": true,
          "internalType": "address",
          "name": "from",
          "type": "address"
        },
        {
          "indexed": true,
          "internalType": "address",
          "name": "to",
          "type": "address"
        },
        {
          "indexed": false,
          "internalType": "uint256",
          "name": "value",
          "type": "uint256"
        }
      ],
      "name": "Transfer",
      "type": "event"
    },
    {
      "inputs": [],
      "name": "_totalSupply",
      "outputs": [
        {
          "internalType": "uint256",
          "name": "",
          "type": "uint256"
        }
      ],
      "stateMutability": "view",
      "type": "function",
      "constant": true
    },
    {
      "inputs": [],
      "name": "amount_eth",
      "outputs": [
        {
          "internalType": "uint256",
          "name": "",
          "type": "uint256"
        }
      ],
      "stateMutability": "view",
      "type": "function",
      "constant": true
    },
    {
      "inputs": [],
      "name": "buyprice",
      "outputs": [
        {
          "internalType": "uint256",
          "name": "",
          "type": "uint256"
        }
      ],
      "stateMutability": "view",
      "type": "function",
      "constant": true
    },
    {
      "inputs": [],
      "name": "decimals",
      "outputs": [
        {
          "internalType": "uint8",
          "name": "",
          "type": "uint8"
        }
      ],
      "stateMutability": "view",
      "type": "function",
      "constant": true
    },
    {
      "inputs": [
        {
          "internalType": "uint256",
          "name": "",
          "type": "uint256"
        }
      ],
      "name": "listSell",
      "outputs": [
        {
          "internalType": "address",
          "name": "seller",
          "type": "address"
        },
        {
          "internalType": "uint256",
          "name": "tokens",
          "type": "uint256"
        }
      ],
      "stateMutability": "view",
      "type": "function",
      "constant": true
    },
    {
      "inputs": [],
      "name": "name",
      "outputs": [
        {
          "internalType": "string",
          "name": "",
          "type": "string"
        }
      ],
      "stateMutability": "view",
      "type": "function",
      "constant": true
    },
    {
      "inputs": [],
      "name": "owner",
      "outputs": [
        {
          "internalType": "address payable",
          "name": "",
          "type": "address"
        }
      ],
      "stateMutability": "view",
      "type": "function",
      "constant": true
    },
    {
      "inputs": [],
      "name": "sellPrice",
      "outputs": [
        {
          "internalType": "uint256",
          "name": "",
          "type": "uint256"
        }
      ],
      "stateMutability": "view",
      "type": "function",
      "constant": true
    },
    {
      "inputs": [],
      "name": "symbol",
      "outputs": [
        {
          "internalType": "string",
          "name": "",
          "type": "string"
        }
      ],
      "stateMutability": "view",
      "type": "function",
      "constant": true
    },
    {
      "inputs": [
        {
          "internalType": "address payable",
          "name": "newOwner",
          "type": "address"
        }
      ],
      "name": "transferOwnership",
      "outputs": [],
      "stateMutability": "nonpayable",
      "type": "function"
    },
    {
      "inputs": [],
      "name": "totalSupply",
      "outputs": [
        {
          "internalType": "uint256",
          "name": "",
          "type": "uint256"
        }
      ],
      "stateMutability": "view",
      "type": "function",
      "constant": true
    },
    {
      "inputs": [
        {
          "internalType": "address",
          "name": "tokenOwner",
          "type": "address"
        }
      ],
      "name": "balanceOf",
      "outputs": [
        {
          "internalType": "uint256",
          "name": "",
          "type": "uint256"
        }
      ],
      "stateMutability": "view",
      "type": "function",
      "constant": true
    },
    {
      "inputs": [
        {
          "internalType": "address",
          "name": "to",
          "type": "address"
        },
        {
          "internalType": "uint256",
          "name": "tokens",
          "type": "uint256"
        }
      ],
      "name": "transfer",
      "outputs": [
        {
          "internalType": "bool",
          "name": "",
          "type": "bool"
        }
      ],
      "stateMutability": "nonpayable",
      "type": "function"
    },
    {
      "inputs": [
        {
          "internalType": "address",
          "name": "spender",
          "type": "address"
        },
        {
          "internalType": "uint256",
          "name": "tokens",
          "type": "uint256"
        }
      ],
      "name": "approve",
      "outputs": [
        {
          "internalType": "bool",
          "name": "",
          "type": "bool"
        }
      ],
      "stateMutability": "nonpayable",
      "type": "function"
    },
    {
      "inputs": [
        {
          "internalType": "address",
          "name": "tokenOwner",
          "type": "address"
        },
        {
          "internalType": "address",
          "name": "spender",
          "type": "address"
        }
      ],
      "name": "allowance",
      "outputs": [
        {
          "internalType": "uint256",
          "name": "",
          "type": "uint256"
        }
      ],
      "stateMutability": "view",
      "type": "function",
      "constant": true
    },
    {
      "inputs": [
        {
          "internalType": "address",
          "name": "from",
          "type": "address"
        },
        {
          "internalType": "address",
          "name": "to",
          "type": "address"
        },
        {
          "internalType": "uint256",
          "name": "tokens",
          "type": "uint256"
        }
      ],
      "name": "transferFrom",
      "outputs": [
        {
          "internalType": "bool",
          "name": "",
          "type": "bool"
        }
      ],
      "stateMutability": "nonpayable",
      "type": "function"
    },
    {
      "inputs": [],
      "name": "buy",
      "outputs": [],
      "stateMutability": "payable",
      "type": "function",
      "payable": true
    },
    {
      "inputs": [
        {
          "internalType": "uint256",
          "name": "_tokens",
          "type": "uint256"
        }
      ],
      "name": "addList",
      "outputs": [],
      "stateMutability": "nonpayable",
      "type": "function"
    },
    {
      "inputs": [],
      "name": "completList",
      "outputs": [
        {
          "components": [
            {
              "internalType": "address",
              "name": "seller",
              "type": "address"
            },
            {
              "internalType": "uint256",
              "name": "tokens",
              "type": "uint256"
            }
          ],
          "internalType": "struct StudyCoin.Sellers[]",
          "name": "",
          "type": "tuple[]"
        }
      ],
      "stateMutability": "view",
      "type": "function",
      "constant": true
    },
    {
      "inputs": [
        {
          "internalType": "uint256",
          "name": "myAmount",
          "type": "uint256"
        }
      ],
      "name": "withdraw",
      "outputs": [],
      "stateMutability": "nonpayable",
      "type": "function"
    },
    {
      "inputs": [],
      "name": "restart",
      "outputs": [],
      "stateMutability": "nonpayable",
      "type": "function"
    },
    {
      "inputs": [
        {
          "internalType": "address",
          "name": "tokenAddress",
          "type": "address"
        },
        {
          "internalType": "uint256",
          "name": "tokens",
          "type": "uint256"
        }
      ],
      "name": "transferAnyERC20Token",
      "outputs": [
        {
          "internalType": "bool",
          "name": "success",
          "type": "bool"
        }
      ],
      "stateMutability": "nonpayable",
      "type": "function"
    }
  ],
  "bytecode": "0x60806040526040518060400160405280600381526020017f465343000000000000000000000000000000000000000000000000000000000081525060019080519060200190620000519291906200028e565b506040518060400160405280601281526020017f46696e616e636520537475647920436f696e0000000000000000000000000000815250600290805190602001906200009f9291906200028e565b506012600360006101000a81548160ff021916908360ff1602179055506000600455600360009054906101000a900460ff1660ff16600a0a61271002600555652d79883d2000600855348015620000f557600080fd5b50336000806101000a81548173ffffffffffffffffffffffffffffffffffffffff021916908373ffffffffffffffffffffffffffffffffffffffff16021790555060646005805402816200014557fe5b04600a60008060009054906101000a900473ffffffffffffffffffffffffffffffffffffffff1673ffffffffffffffffffffffffffffffffffffffff1673ffffffffffffffffffffffffffffffffffffffff168152602001908152602001600020819055506064605f6005540281620001ba57fe5b04600a60003073ffffffffffffffffffffffffffffffffffffffff1673ffffffffffffffffffffffffffffffffffffffff1681526020019081526020016000208190555060008054906101000a900473ffffffffffffffffffffffffffffffffffffffff1673ffffffffffffffffffffffffffffffffffffffff16600073ffffffffffffffffffffffffffffffffffffffff167fddf252ad1be2c89b69c2b068fc378daa952ba7f163c4a11628f55a4df523b3ef60055460405162000280919062000355565b60405180910390a36200037c565b828054600181600116156101000203166002900490600052602060002090601f016020900481019282620002c6576000855562000312565b82601f10620002e157805160ff191683800117855562000312565b8280016001018555821562000312579182015b8281111562000311578251825591602001919060010190620002f4565b5b50905062000321919062000325565b5090565b5b808211156200034057600081600090555060010162000326565b5090565b6200034f8162000372565b82525050565b60006020820190506200036c600083018462000344565b92915050565b6000819050919050565b611eae806200038c6000396000f3fe6080604052600436106101355760003560e01c8063555413f7116100ab578063a9059cbb1161006f578063a9059cbb146103fc578063c0f7988714610439578063dc39d06d14610462578063dd62ed3e1461049f578063f2fde38b146104dc578063ff81c91a1461050557610135565b8063555413f71461033457806370a082311461035f5780638da5cb5b1461039c57806395d89b41146103c7578063a6f2ae3a146103f257610135565b80632e1a7d4d116100fd5780632e1a7d4d14610221578063313ce5671461024a5780633eaaf86b146102755780633ecb3289146102a057806346465ef9146102de5780634b7503341461030957610135565b806306fdde031461013a578063095ea7b31461016557806318160ddd146101a25780631ef3755d146101cd57806323b872dd146101e4575b600080fd5b34801561014657600080fd5b5061014f610530565b60405161015c9190611c6e565b60405180910390f35b34801561017157600080fd5b5061018c600480360381019061018791906119a0565b6105ce565b6040516101999190611c53565b60405180910390f35b3480156101ae57600080fd5b506101b7610757565b6040516101c49190611cb0565b60405180910390f35b3480156101d957600080fd5b506101e2610761565b005b3480156101f057600080fd5b5061020b60048036038101906102069190611951565b6107db565b6040516102189190611c53565b60405180910390f35b34801561022d57600080fd5b5061024860048036038101906102439190611a05565b610b12565b005b34801561025657600080fd5b5061025f610c27565b60405161026c9190611ccb565b60405180910390f35b34801561028157600080fd5b5061028a610c3a565b6040516102979190611cb0565b60405180910390f35b3480156102ac57600080fd5b506102c760048036038101906102c29190611a05565b610c40565b6040516102d5929190611c08565b60405180910390f35b3480156102ea57600080fd5b506102f3610c94565b6040516103009190611cb0565b60405180910390f35b34801561031557600080fd5b5061031e610c9a565b60405161032b9190611cb0565b60405180910390f35b34801561034057600080fd5b50610349610ca0565b6040516103569190611cb0565b60405180910390f35b34801561036b57600080fd5b50610386600480360381019061038191906118c3565b610ca6565b6040516103939190611cb0565b60405180910390f35b3480156103a857600080fd5b506103b1610cef565b6040516103be9190611bc4565b60405180910390f35b3480156103d357600080fd5b506103dc610d13565b6040516103e99190611c6e565b60405180910390f35b6103fa610db1565b005b34801561040857600080fd5b50610423600480360381019061041e91906119a0565b610f2c565b6040516104309190611c53565b60405180910390f35b34801561044557600080fd5b50610460600480360381019061045b9190611a05565b61114d565b005b34801561046e57600080fd5b50610489600480360381019061048491906119a0565b611260565b6040516104969190611c53565b60405180910390f35b3480156104ab57600080fd5b506104c660048036038101906104c19190611915565b611370565b6040516104d39190611cb0565b60405180910390f35b3480156104e857600080fd5b5061050360048036038101906104fe91906118ec565b6113f7565b005b34801561051157600080fd5b5061051a611539565b6040516105279190611c31565b60405180910390f35b60028054600181600116156101000203166002900480601f0160208091040260200160405190810160405280929190818152602001828054600181600116156101000203166002900480156105c65780601f1061059b576101008083540402835291602001916105c6565b820191906000526020600020905b8154815290600101906020018083116105a957829003601f168201915b505050505081565b600080821415801561065d57506000600b60003373ffffffffffffffffffffffffffffffffffffffff1673ffffffffffffffffffffffffffffffffffffffff16815260200190815260200160002060008573ffffffffffffffffffffffffffffffffffffffff1673ffffffffffffffffffffffffffffffffffffffff1681526020019081526020016000205414155b1561066757600080fd5b81600b60003373ffffffffffffffffffffffffffffffffffffffff1673ffffffffffffffffffffffffffffffffffffffff16815260200190815260200160002060008573ffffffffffffffffffffffffffffffffffffffff1673ffffffffffffffffffffffffffffffffffffffff168152602001908152602001600020819055508273ffffffffffffffffffffffffffffffffffffffff163373ffffffffffffffffffffffffffffffffffffffff167f8c5be1e5ebec7d5bd14f71427d1e84f3dd0314c0f7b2291e5b200ac8c7c3b925846040516107459190611cb0565b60405180910390a36001905092915050565b6000600554905090565b60008054906101000a900473ffffffffffffffffffffffffffffffffffffffff1673ffffffffffffffffffffffffffffffffffffffff163373ffffffffffffffffffffffffffffffffffffffff16146107b957600080fd5b600360009054906101000a900460ff1660ff16600a0a61271002600581905550565b600081600a60008673ffffffffffffffffffffffffffffffffffffffff1673ffffffffffffffffffffffffffffffffffffffff16815260200190815260200160002054101561082957600080fd5b600073ffffffffffffffffffffffffffffffffffffffff168373ffffffffffffffffffffffffffffffffffffffff16141561086357600080fd5b6000600b60008673ffffffffffffffffffffffffffffffffffffffff1673ffffffffffffffffffffffffffffffffffffffff16815260200190815260200160002060003373ffffffffffffffffffffffffffffffffffffffff1673ffffffffffffffffffffffffffffffffffffffff16815260200190815260200160002054905061093683600a60008873ffffffffffffffffffffffffffffffffffffffff1673ffffffffffffffffffffffffffffffffffffffff168152602001908152602001600020546115f890919063ffffffff16565b600a60008773ffffffffffffffffffffffffffffffffffffffff1673ffffffffffffffffffffffffffffffffffffffff168152602001908152602001600020819055506109cb83600a60008773ffffffffffffffffffffffffffffffffffffffff1673ffffffffffffffffffffffffffffffffffffffff1681526020019081526020016000205461167b90919063ffffffff16565b600a60008673ffffffffffffffffffffffffffffffffffffffff1673ffffffffffffffffffffffffffffffffffffffff16815260200190815260200160002081905550610a2183826115f890919063ffffffff16565b600b60008773ffffffffffffffffffffffffffffffffffffffff1673ffffffffffffffffffffffffffffffffffffffff16815260200190815260200160002060003373ffffffffffffffffffffffffffffffffffffffff1673ffffffffffffffffffffffffffffffffffffffff168152602001908152602001600020819055508373ffffffffffffffffffffffffffffffffffffffff168573ffffffffffffffffffffffffffffffffffffffff167fddf252ad1be2c89b69c2b068fc378daa952ba7f163c4a11628f55a4df523b3ef85604051610afe9190611cb0565b60405180910390a360019150509392505050565b60008054906101000a900473ffffffffffffffffffffffffffffffffffffffff1673ffffffffffffffffffffffffffffffffffffffff163373ffffffffffffffffffffffffffffffffffffffff1614610b6a57600080fd5b80471015610bad576040517f08c379a0000000000000000000000000000000000000000000000000000000008152600401610ba490611c90565b60405180910390fd5b8060046000828254039250508190555060008054906101000a900473ffffffffffffffffffffffffffffffffffffffff1673ffffffffffffffffffffffffffffffffffffffff166108fc829081150290604051600060405180830381858888f19350505050158015610c23573d6000803e3d6000fd5b5050565b600360009054906101000a900460ff1681565b60055481565b60098181548110610c5057600080fd5b90600052602060002090600202016000915090508060000160009054906101000a900473ffffffffffffffffffffffffffffffffffffffff16908060010154905082565b60045481565b60075481565b60085481565b6000600a60008373ffffffffffffffffffffffffffffffffffffffff1673ffffffffffffffffffffffffffffffffffffffff168152602001908152602001600020549050919050565b60008054906101000a900473ffffffffffffffffffffffffffffffffffffffff1681565b60018054600181600116156101000203166002900480601f016020809104026020016040519081016040528092919081815260200182805460018160011615610100020316600290048015610da95780601f10610d7e57610100808354040283529160200191610da9565b820191906000526020600020905b815481529060010190602001808311610d8c57829003601f168201915b505050505081565b600854341015610dc057600080fd5b600360009054906101000a900460ff1660ff16600a0a610deb6008543461170390919063ffffffff16565b02600a60003073ffffffffffffffffffffffffffffffffffffffff1673ffffffffffffffffffffffffffffffffffffffff168152602001908152602001600020541015610e3757600080fd5b346004600082825401925050819055506000600360009054906101000a900460ff1660ff16600a0a610e746008543461170390919063ffffffff16565b02905080600a60003373ffffffffffffffffffffffffffffffffffffffff1673ffffffffffffffffffffffffffffffffffffffff168152602001908152602001600020600082825401925050819055503373ffffffffffffffffffffffffffffffffffffffff163073ffffffffffffffffffffffffffffffffffffffff167fddf252ad1be2c89b69c2b068fc378daa952ba7f163c4a11628f55a4df523b3ef83604051610f219190611cb0565b60405180910390a350565b600081600a60003373ffffffffffffffffffffffffffffffffffffffff1673ffffffffffffffffffffffffffffffffffffffff168152602001908152602001600020541015610f7a57600080fd5b600073ffffffffffffffffffffffffffffffffffffffff168373ffffffffffffffffffffffffffffffffffffffff161415610fb457600080fd5b61100682600a60003373ffffffffffffffffffffffffffffffffffffffff1673ffffffffffffffffffffffffffffffffffffffff168152602001908152602001600020546115f890919063ffffffff16565b600a60003373ffffffffffffffffffffffffffffffffffffffff1673ffffffffffffffffffffffffffffffffffffffff1681526020019081526020016000208190555061109b82600a60008673ffffffffffffffffffffffffffffffffffffffff1673ffffffffffffffffffffffffffffffffffffffff1681526020019081526020016000205461167b90919063ffffffff16565b600a60008573ffffffffffffffffffffffffffffffffffffffff1673ffffffffffffffffffffffffffffffffffffffff168152602001908152602001600020819055508273ffffffffffffffffffffffffffffffffffffffff163373ffffffffffffffffffffffffffffffffffffffff167fddf252ad1be2c89b69c2b068fc378daa952ba7f163c4a11628f55a4df523b3ef8460405161113b9190611cb0565b60405180910390a36001905092915050565b80600a60003373ffffffffffffffffffffffffffffffffffffffff1673ffffffffffffffffffffffffffffffffffffffff16815260200190815260200160002054101561119957600080fd5b60003390506111a78261178c565b6111af61183f565b60405180604001604052808373ffffffffffffffffffffffffffffffffffffffff168152602001848152509050600981908060018154018082558091505060019003906000526020600020906002020160009091909190915060008201518160000160006101000a81548173ffffffffffffffffffffffffffffffffffffffff021916908373ffffffffffffffffffffffffffffffffffffffff160217905550602082015181600101555050505050565b60008060009054906101000a900473ffffffffffffffffffffffffffffffffffffffff1673ffffffffffffffffffffffffffffffffffffffff163373ffffffffffffffffffffffffffffffffffffffff16146112bb57600080fd5b8273ffffffffffffffffffffffffffffffffffffffff1663a9059cbb60008054906101000a900473ffffffffffffffffffffffffffffffffffffffff16846040518363ffffffff1660e01b8152600401611316929190611bdf565b602060405180830381600087803b15801561133057600080fd5b505af1158015611344573d6000803e3d6000fd5b505050506040513d601f19601f8201168201806040525081019061136891906119dc565b905092915050565b6000600b60008473ffffffffffffffffffffffffffffffffffffffff1673ffffffffffffffffffffffffffffffffffffffff16815260200190815260200160002060008373ffffffffffffffffffffffffffffffffffffffff1673ffffffffffffffffffffffffffffffffffffffff16815260200190815260200160002054905092915050565b60008054906101000a900473ffffffffffffffffffffffffffffffffffffffff1673ffffffffffffffffffffffffffffffffffffffff163373ffffffffffffffffffffffffffffffffffffffff161461144f57600080fd5b600073ffffffffffffffffffffffffffffffffffffffff168173ffffffffffffffffffffffffffffffffffffffff16141561148957600080fd5b806000806101000a81548173ffffffffffffffffffffffffffffffffffffffff021916908373ffffffffffffffffffffffffffffffffffffffff1602179055507f04dba622d284ed0014ee4b9a6a68386be1a4c08a4913ae272de89199cc68616360008054906101000a900473ffffffffffffffffffffffffffffffffffffffff16604051808273ffffffffffffffffffffffffffffffffffffffff16815260200191505060405180910390a150565b60606009805480602002602001604051908101604052809291908181526020016000905b828210156115ef57838290600052602060002090600202016040518060400160405290816000820160009054906101000a900473ffffffffffffffffffffffffffffffffffffffff1673ffffffffffffffffffffffffffffffffffffffff1673ffffffffffffffffffffffffffffffffffffffff1681526020016001820154815250508152602001906001019061155d565b50505050905090565b600082821115611670576040517f08c379a000000000000000000000000000000000000000000000000000000000815260040180806020018281038252601e8152602001807f536166654d6174683a207375627472616374696f6e206f766572666c6f77000081525060200191505060405180910390fd5b818303905092915050565b6000808284019050838110156116f9576040517f08c379a000000000000000000000000000000000000000000000000000000000815260040180806020018281038252601b8152602001807f536166654d6174683a206164646974696f6e206f766572666c6f77000000000081525060200191505060405180910390fd5b8091505092915050565b600080821161177a576040517f08c379a000000000000000000000000000000000000000000000000000000000815260040180806020018281038252601a8152602001807f536166654d6174683a206469766973696f6e206279207a65726f00000000000081525060200191505060405180910390fd5b81838161178357fe5b04905092915050565b6117de81600a60003373ffffffffffffffffffffffffffffffffffffffff1673ffffffffffffffffffffffffffffffffffffffff168152602001908152602001600020546115f890919063ffffffff16565b600a60003373ffffffffffffffffffffffffffffffffffffffff1673ffffffffffffffffffffffffffffffffffffffff16815260200190815260200160002081905550611836816005546115f890919063ffffffff16565b60058190555050565b6040518060400160405280600073ffffffffffffffffffffffffffffffffffffffff168152602001600081525090565b60008135905061187e81611e1c565b92915050565b60008135905061189381611e33565b92915050565b6000815190506118a881611e4a565b92915050565b6000813590506118bd81611e61565b92915050565b6000602082840312156118d557600080fd5b60006118e38482850161186f565b91505092915050565b6000602082840312156118fe57600080fd5b600061190c84828501611884565b91505092915050565b6000806040838503121561192857600080fd5b60006119368582860161186f565b92505060206119478582860161186f565b9150509250929050565b60008060006060848603121561196657600080fd5b60006119748682870161186f565b93505060206119858682870161186f565b9250506040611996868287016118ae565b9150509250925092565b600080604083850312156119b357600080fd5b60006119c18582860161186f565b92505060206119d2858286016118ae565b9150509250929050565b6000602082840312156119ee57600080fd5b60006119fc84828501611899565b91505092915050565b600060208284031215611a1757600080fd5b6000611a25848285016118ae565b91505092915050565b6000611a3a8383611b68565b60408301905092915050565b611a4f81611da2565b82525050565b611a5e81611d4d565b82525050565b611a6d81611d3b565b82525050565b611a7c81611d3b565b82525050565b6000611a8d82611cf6565b611a978185611d19565b9350611aa283611ce6565b8060005b83811015611ad3578151611aba8882611a2e565b9750611ac583611d0c565b925050600181019050611aa6565b5085935050505092915050565b611ae981611d5f565b82525050565b6000611afa82611d01565b611b048185611d2a565b9350611b14818560208601611dd8565b611b1d81611e0b565b840191505092915050565b6000611b35601383611d2a565b91507f496e73756666696369656e742066756e64732e000000000000000000000000006000830152602082019050919050565b604082016000820151611b7e6000850182611a64565b506020820151611b916020850182611b97565b50505050565b611ba081611d8b565b82525050565b611baf81611d8b565b82525050565b611bbe81611d95565b82525050565b6000602082019050611bd96000830184611a55565b92915050565b6000604082019050611bf46000830185611a46565b611c016020830184611ba6565b9392505050565b6000604082019050611c1d6000830185611a73565b611c2a6020830184611ba6565b9392505050565b60006020820190508181036000830152611c4b8184611a82565b905092915050565b6000602082019050611c686000830184611ae0565b92915050565b60006020820190508181036000830152611c888184611aef565b905092915050565b60006020820190508181036000830152611ca981611b28565b9050919050565b6000602082019050611cc56000830184611ba6565b92915050565b6000602082019050611ce06000830184611bb5565b92915050565b6000819050602082019050919050565b600081519050919050565b600081519050919050565b6000602082019050919050565b600082825260208201905092915050565b600082825260208201905092915050565b6000611d4682611d6b565b9050919050565b6000611d5882611d6b565b9050919050565b60008115159050919050565b600073ffffffffffffffffffffffffffffffffffffffff82169050919050565b6000819050919050565b600060ff82169050919050565b6000611dad82611db4565b9050919050565b6000611dbf82611dc6565b9050919050565b6000611dd182611d6b565b9050919050565b60005b83811015611df6578082015181840152602081019050611ddb565b83811115611e05576000848401525b50505050565b6000601f19601f8301169050919050565b611e2581611d3b565b8114611e3057600080fd5b50565b611e3c81611d4d565b8114611e4757600080fd5b50565b611e5381611d5f565b8114611e5e57600080fd5b50565b611e6a81611d8b565b8114611e7557600080fd5b5056fea2646970667358221220566f148bafe9514ba541d92c16bab63177fc85cafcf4bfaf12ebcc6dca7cd69b64736f6c63430007040033",
  "immutableReferences": {},
  "source": "// SPDX-License-Identifier: MIT\r\n\r\npragma solidity 0.7.4;\r\npragma experimental ABIEncoderV2;\r\n\r\nimport \"@openzeppelin/contracts/math/SafeMath.sol\";\r\nimport \"./Ownable.sol\";\r\nimport \"./ERC20.sol\";\r\n\r\ncontract StudyCoin is Ownable, ERC20 {\r\n    using SafeMath for uint;\r\n    \r\n    \r\n    string public symbol = \"FSC\";\r\n    string public  name = \"Finance Study Coin\";\r\n    uint8 public decimals = 18;\r\n    uint public amount_eth = 0;\r\n    uint public _totalSupply = 10000 * 10 ** uint(decimals);\r\n    uint internal _eth;\r\n    uint public sellPrice;\r\n    uint public buyprice = 50000000000000 wei;\r\n    \r\n    struct Sellers {\r\n        address seller;\r\n        uint tokens;\r\n    }\r\n    \r\n    Sellers[] public listSell;\r\n    \r\n    \r\n    mapping (address => uint) internal _balances;\r\n    mapping (address => mapping (address => uint)) internal _allowed;\r\n    mapping (address => uint) internal _etherBalances;\r\n    \r\n   \r\n    \r\n    event TokenSold(address seller, uint tokens, uint inWei);\r\n    \r\n    constructor()  {\r\n         \r\n        _balances[owner] = _totalSupply * 5/100;\r\n        _balances[address(this)] = _totalSupply * 95/100;\r\n        emit Transfer(address(0), owner, _totalSupply);\r\n    }\r\n    \r\n    \r\n    function totalSupply() public view virtual override returns (uint256) {\r\n        return _totalSupply;\r\n    }\r\n\r\n    function balanceOf(address tokenOwner) public view virtual override returns (uint) {\r\n        return _balances[tokenOwner];\r\n    }\r\n\r\n    function transfer(address to, uint tokens) public virtual override returns (bool) {\r\n        require(_balances[msg.sender] >= tokens);\r\n        require(to != address(0));\r\n\r\n        _balances[msg.sender] = _balances[msg.sender].sub(tokens);\r\n        _balances[to] = _balances[to].add(tokens);\r\n\r\n        emit Transfer(msg.sender, to, tokens);\r\n\r\n        return true;\r\n    }\r\n\r\n    function approve(address spender, uint tokens) public virtual override returns (bool) {\r\n        // https://github.com/ethereum/EIPs/blob/master/EIPS/eip-20.md#approve (see NOTE)\r\n        if ((tokens != 0) && (_allowed[msg.sender][spender] != 0)) {\r\n            revert();\r\n        }\r\n\r\n        _allowed[msg.sender][spender] = tokens;\r\n\r\n        emit Approval(msg.sender, spender, tokens);\r\n\r\n        return true;\r\n    }\r\n\r\n    function allowance(address tokenOwner, address spender) public view virtual override returns (uint256) {\r\n        return _allowed[tokenOwner][spender];\r\n    }\r\n\r\n    function transferFrom(address from, address to, uint tokens) public virtual override returns (bool) {\r\n        require(_balances[from] >= tokens);\r\n        require(to != address(0));\r\n\r\n        uint _allowance = _allowed[from][msg.sender];\r\n\r\n        _balances[from] = _balances[from].sub(tokens);\r\n        _balances[to] = _balances[to].add(tokens);\r\n        _allowed[from][msg.sender] = _allowance.sub(tokens);\r\n\r\n        emit Transfer(from, to, tokens);\r\n\r\n        return true;\r\n    }\r\n    \r\n      function buy() public payable {\r\n        require(msg.value >= buyprice);\r\n        require(_balances[address(this)] >= msg.value.div(buyprice) * 10 ** uint(decimals));\r\n        \r\n        amount_eth += msg.value;\r\n        uint tokens = msg.value.div(buyprice) * 10 ** uint(decimals);\r\n        _balances[msg.sender] += tokens;\r\n        \r\n        \r\n        emit Transfer(address(this), msg.sender, tokens);\r\n    }\r\n\r\n    \r\n        \r\n     function addList (uint _tokens) public {\r\n         require(_balances[msg.sender] >= _tokens);\r\n         address _seller = msg.sender;\r\n         _burn(_tokens);\r\n         Sellers memory newSeller = Sellers({\r\n           seller: _seller,\r\n           tokens: _tokens\r\n        });\r\n        \r\n        listSell.push(newSeller);\r\n    }\r\n\r\n    function completList () public view returns (Sellers[] memory) {\r\n        return listSell;\r\n    }\r\n    \r\n    \r\n\r\n    function _burn(uint tokens) internal virtual {\r\n        _balances[msg.sender] = _balances[msg.sender].sub(tokens);\r\n        _totalSupply = _totalSupply.sub(tokens);\r\n    }\r\n    \r\n     function withdraw(uint myAmount) onlyOwner public {\r\n\t\trequire(address(this).balance >= myAmount, \"Insufficient funds.\");\r\n\t\tamount_eth -= myAmount;\r\n\t\towner.transfer(myAmount);\r\n\t}\r\n\t\r\n\tfunction restart() onlyOwner public {\r\n\t    _totalSupply = 10000 * 10 ** uint(decimals);\r\n\t}\r\n   \r\n    function transferAnyERC20Token(address tokenAddress, uint tokens) public onlyOwner returns (bool success) {\r\n        return ERC20(tokenAddress).transfer(owner, tokens);\r\n    }\r\n}",
  "sourcePath": "C:/Users/User/Documents/FinancyStudyCoin/contracts/StudyCoin.sol",
  "compiler": {
    "name": "solc",
    "version": "0.7.4+commit.3f05b770.Emscripten.clang"
  },
  "schemaVersion": "3.3.4",
  "updatedAt": "2021-03-08T17:56:24.794Z",
  "networkType": "ethereum",
  "devdoc": {
    "kind": "dev",
    "methods": {},
    "version": 1
  },
  "userdoc": {
    "kind": "user",
    "methods": {},
    "version": 1
  }
}